:020000003A289C
:100006008312031306148610071587110816881223
:0600160009148910080026
:10001C008312031306148614071187110816881609
:06002C0009108910080014
:1000320083120313061086140711871508128816F7
:06004200091089140800FA
:1000480083120313061086140715871508128816DD
:06005800091489140800E0
:10005E0083120313061486140715871508128812C7
:06006E00091089100800D2
:100074000730831603139F008601870188018901D5
:100084008312860187018801890103202930FB003E
:100094009630FC007F30FD00FD0B4E28FC0B4E28F3
:1000A400FB0B4E280E202930FB009630FC007F30DD
:1000B400FD00FD0B5B28FC0B5B28FB0B5B2824205D
:1000C4002930FB009630FC007F30FD00FD0B6828D2
:1000D400FC0B6828FB0B68282F202930FB00963086
:1000E400FC007F30FD00FD0B7528FC0B7528FB0B15
:1000F400752819202930FB009630FC007F30FD0064
:10010400FD0B8228FC0B8228FB0B822847288928B8
:02400E004A2F37
:00000001FF
