:020000000328D3
:10000600013083160313860083128601061C5228CC
:100016008617061386128611061186143D30FB00DC
:10002600E130FC003F30FD00FD0B1728FC0B1728C4
:10003600FB0B172800000000861006151530FB0084
:100046004B30FC00BE30FD00FD0B2728FC0B27289B
:10005600FB0B2728000006118613861686158610C8
:100066003D30FB00E130FC003F30FD00FD0B392840
:10007600FC0B3928FB0B39280000000086120617F6
:100086001530FB004B30FC00BE30FD00FD0B49284F
:10009600FC0B4928FB0B492800000613762886131B
:1000A600061786128611061586100B30FB002630C1
:1000B600FC005D30FD00FD0B5E28FC0B5E28FB0B93
:1000C6005E2800000000061306110B30FB002630E8
:1000D600FC005D30FD00FD0B6E28FC0B6E28FB0B53
:0A00E6006E280000000009287728AA
:02400E004A2F37
:00000001FF
