:020000000328D3
:1000060083160313860183128601A2018030323AD9
:10001600F000803022067002031C272806140B30DD
:10002600FC006230FD00FD0B1628FC0B16280000B4
:1000360006105E30FC008030FD00FD0B2028FC0B16
:1000460020280000A20A09282930FB009630FC006F
:100056007F30FD00FD0B2D28FC0B2D28FB0B2D28DA
:10006600A2018030323AF000803022067002031C72
:10007600522806140730FC007D30FD00FD0B412898
:10008600FC0B412806106230FC006530FD00FD0BBC
:100096004A28FC0B4A2800000000A20A342829300E
:1000A600FB009630FC007F30FD00FD0B5828FC0B52
:1000B6005828FB0B5828A2018030323AF0008030D5
:1000C60022067002031C7D2806140330FC009730BC
:1000D600FD00FD0B6C28FC0B6C28000000000610D0
:1000E6006630FC004B30FD00FD0B7728FC0B7728B3
:1000F600A20A5F282930FB009630FC007F30FD0005
:10010600FD0B8328FC0B8328FB0B832808288A28F1
:02400E004A2F37
:00000001FF
